{
  "contractName": "User",
  "abi": [
    {
      "inputs": [
        {
          "internalType": "address",
          "name": "user",
          "type": "address"
        }
      ],
      "name": "getUserType",
      "outputs": [
        {
          "internalType": "uint256",
          "name": "",
          "type": "uint256"
        }
      ],
      "stateMutability": "view",
      "type": "function",
      "constant": true
    },
    {
      "inputs": [],
      "name": "fetchEmployees",
      "outputs": [
        {
          "components": [
            {
              "internalType": "address",
              "name": "_address",
              "type": "address"
            },
            {
              "internalType": "string",
              "name": "username",
              "type": "string"
            },
            {
              "internalType": "enum User.Access",
              "name": "access",
              "type": "uint8"
            }
          ],
          "internalType": "struct User.Employee[]",
          "name": "",
          "type": "tuple[]"
        }
      ],
      "stateMutability": "view",
      "type": "function",
      "constant": true
    },
    {
      "inputs": [],
      "name": "createEmployer",
      "outputs": [],
      "stateMutability": "nonpayable",
      "type": "function"
    },
    {
      "inputs": [
        {
          "internalType": "address",
          "name": "_employeeAddress",
          "type": "address"
        },
        {
          "internalType": "string",
          "name": "_employeeName",
          "type": "string"
        }
      ],
      "name": "addEmployee",
      "outputs": [],
      "stateMutability": "nonpayable",
      "type": "function"
    },
    {
      "inputs": [
        {
          "internalType": "address",
          "name": "_employeeAddress",
          "type": "address"
        }
      ],
      "name": "changeAccess",
      "outputs": [],
      "stateMutability": "nonpayable",
      "type": "function"
    }
  ],
  "bytecode": "0x608060405234801561001057600080fd5b50611696806100206000396000f3fe608060405234801561001057600080fd5b50600436106100575760003560e01c80630a67a48d1461005c57806330242b761461007a5780638b3f863f14610084578063a502e808146100b4578063f403688a146100d0575b600080fd5b6100646100ec565b6040516100719190611086565b60405180910390f35b610082610407565b005b61009e600480360381019061009991906110e8565b6105cd565b6040516100ab919061112e565b60405180910390f35b6100ce60048036038101906100c9919061127e565b61068f565b005b6100ea60048036038101906100e591906110e8565b610b4b565b005b6060600460003373ffffffffffffffffffffffffffffffffffffffff1673ffffffffffffffffffffffffffffffffffffffff16815260200190815260200160002060009054906101000a900460ff1661017a576040517f08c379a00000000000000000000000000000000000000000000000000000000081526004016101719061135d565b60405180910390fd5b6000600260003373ffffffffffffffffffffffffffffffffffffffff1673ffffffffffffffffffffffffffffffffffffffff16815260200190815260200160002060000160149054906101000a900460ff16905060008160ff1667ffffffffffffffff8111156101ed576101ec611153565b5b60405190808252806020026020018201604052801561022657816020015b610213610d37565b81526020019060019003908161020b5790505b50905060005b8260ff168160ff1610156103fe57600360003373ffffffffffffffffffffffffffffffffffffffff1673ffffffffffffffffffffffffffffffffffffffff168152602001908152602001600020600060018361028891906113b9565b60ff1660ff1681526020019081526020016000206040518060600160405290816000820160009054906101000a900473ffffffffffffffffffffffffffffffffffffffff1673ffffffffffffffffffffffffffffffffffffffff1673ffffffffffffffffffffffffffffffffffffffff16815260200160018201805461030d9061141f565b80601f01602080910402602001604051908101604052809291908181526020018280546103399061141f565b80156103865780601f1061035b57610100808354040283529160200191610386565b820191906000526020600020905b81548152906001019060200180831161036957829003601f168201915b505050505081526020016002820160009054906101000a900460ff1660018111156103b4576103b3610f29565b5b60018111156103c6576103c5610f29565b5b81525050828260ff16815181106103e0576103df611451565b5b602002602001018190525080806103f690611480565b91505061022c565b50809250505090565b600460003373ffffffffffffffffffffffffffffffffffffffff1673ffffffffffffffffffffffffffffffffffffffff16815260200190815260200160002060009054906101000a900460ff1615610494576040517f08c379a000000000000000000000000000000000000000000000000000000000815260040161048b9061151c565b60405180910390fd5b600060405180604001604052803373ffffffffffffffffffffffffffffffffffffffff168152602001600060ff16815250905080600260003373ffffffffffffffffffffffffffffffffffffffff1673ffffffffffffffffffffffffffffffffffffffff16815260200190815260200160002060008201518160000160006101000a81548173ffffffffffffffffffffffffffffffffffffffff021916908373ffffffffffffffffffffffffffffffffffffffff16021790555060208201518160000160146101000a81548160ff021916908360ff1602179055509050506001600460003373ffffffffffffffffffffffffffffffffffffffff1673ffffffffffffffffffffffffffffffffffffffff16815260200190815260200160002060006101000a81548160ff02191690831515021790555050565b6000600460008373ffffffffffffffffffffffffffffffffffffffff1673ffffffffffffffffffffffffffffffffffffffff16815260200190815260200160002060009054906101000a900460ff161561062a576001905061068a565b600560008373ffffffffffffffffffffffffffffffffffffffff1673ffffffffffffffffffffffffffffffffffffffff16815260200190815260200160002060009054906101000a900460ff1615610685576002905061068a565b600390505b919050565b600460003373ffffffffffffffffffffffffffffffffffffffff1673ffffffffffffffffffffffffffffffffffffffff16815260200190815260200160002060009054906101000a900460ff1661071b576040517f08c379a0000000000000000000000000000000000000000000000000000000008152600401610712906115ae565b60405180910390fd5b600560008373ffffffffffffffffffffffffffffffffffffffff1673ffffffffffffffffffffffffffffffffffffffff16815260200190815260200160002060009054906101000a900460ff16156107a8576040517f08c379a000000000000000000000000000000000000000000000000000000000815260040161079f90611640565b60405180910390fd5b600060405180606001604052808473ffffffffffffffffffffffffffffffffffffffff168152602001838152602001600060018111156107eb576107ea610f29565b5b815250905060006001600260003373ffffffffffffffffffffffffffffffffffffffff1673ffffffffffffffffffffffffffffffffffffffff16815260200190815260200160002060000160149054906101000a900460ff1661084e91906113b9565b905080600260003373ffffffffffffffffffffffffffffffffffffffff1673ffffffffffffffffffffffffffffffffffffffff16815260200190815260200160002060000160146101000a81548160ff021916908360ff1602179055506001600560008673ffffffffffffffffffffffffffffffffffffffff1673ffffffffffffffffffffffffffffffffffffffff16815260200190815260200160002060006101000a81548160ff021916908315150217905550336000808673ffffffffffffffffffffffffffffffffffffffff1673ffffffffffffffffffffffffffffffffffffffff16815260200190815260200160002060006101000a81548173ffffffffffffffffffffffffffffffffffffffff021916908373ffffffffffffffffffffffffffffffffffffffff16021790555081600160008673ffffffffffffffffffffffffffffffffffffffff1673ffffffffffffffffffffffffffffffffffffffff16815260200190815260200160002060008201518160000160006101000a81548173ffffffffffffffffffffffffffffffffffffffff021916908373ffffffffffffffffffffffffffffffffffffffff1602179055506020820151816001019080519060200190610a23929190610d80565b5060408201518160020160006101000a81548160ff02191690836001811115610a4f57610a4e610f29565b5b021790555090505081600360003373ffffffffffffffffffffffffffffffffffffffff1673ffffffffffffffffffffffffffffffffffffffff16815260200190815260200160002060008360ff1660ff16815260200190815260200160002060008201518160000160006101000a81548173ffffffffffffffffffffffffffffffffffffffff021916908373ffffffffffffffffffffffffffffffffffffffff1602179055506020820151816001019080519060200190610b11929190610d80565b5060408201518160020160006101000a81548160ff02191690836001811115610b3d57610b3c610f29565b5b021790555090505050505050565b600460003373ffffffffffffffffffffffffffffffffffffffff1673ffffffffffffffffffffffffffffffffffffffff16815260200190815260200160002060009054906101000a900460ff16610bd7576040517f08c379a0000000000000000000000000000000000000000000000000000000008152600401610bce906115ae565b60405180910390fd5b6000600160008373ffffffffffffffffffffffffffffffffffffffff1673ffffffffffffffffffffffffffffffffffffffff16815260200190815260200160002060020160009054906101000a900460ff16905060006001811115610c3f57610c3e610f29565b5b816001811115610c5257610c51610f29565b5b1415610cc75760018060008473ffffffffffffffffffffffffffffffffffffffff1673ffffffffffffffffffffffffffffffffffffffff16815260200190815260200160002060020160006101000a81548160ff02191690836001811115610cbd57610cbc610f29565b5b0217905550610d33565b6000600160008473ffffffffffffffffffffffffffffffffffffffff1673ffffffffffffffffffffffffffffffffffffffff16815260200190815260200160002060020160006101000a81548160ff02191690836001811115610d2d57610d2c610f29565b5b02179055505b5050565b6040518060600160405280600073ffffffffffffffffffffffffffffffffffffffff1681526020016060815260200160006001811115610d7a57610d79610f29565b5b81525090565b828054610d8c9061141f565b90600052602060002090601f016020900481019282610dae5760008555610df5565b82601f10610dc757805160ff1916838001178555610df5565b82800160010185558215610df5579182015b82811115610df4578251825591602001919060010190610dd9565b5b509050610e029190610e06565b5090565b5b80821115610e1f576000816000905550600101610e07565b5090565b600081519050919050565b600082825260208201905092915050565b6000819050602082019050919050565b600073ffffffffffffffffffffffffffffffffffffffff82169050919050565b6000610e7a82610e4f565b9050919050565b610e8a81610e6f565b82525050565b600081519050919050565b600082825260208201905092915050565b60005b83811015610eca578082015181840152602081019050610eaf565b83811115610ed9576000848401525b50505050565b6000601f19601f8301169050919050565b6000610efb82610e90565b610f058185610e9b565b9350610f15818560208601610eac565b610f1e81610edf565b840191505092915050565b7f4e487b7100000000000000000000000000000000000000000000000000000000600052602160045260246000fd5b60028110610f6957610f68610f29565b5b50565b6000819050610f7a82610f58565b919050565b6000610f8a82610f6c565b9050919050565b610f9a81610f7f565b82525050565b6000606083016000830151610fb86000860182610e81565b5060208301518482036020860152610fd08282610ef0565b9150506040830151610fe56040860182610f91565b508091505092915050565b6000610ffc8383610fa0565b905092915050565b6000602082019050919050565b600061101c82610e23565b6110268185610e2e565b93508360208202850161103885610e3f565b8060005b8581101561107457848403895281516110558582610ff0565b945061106083611004565b925060208a0199505060018101905061103c565b50829750879550505050505092915050565b600060208201905081810360008301526110a08184611011565b905092915050565b6000604051905090565b600080fd5b600080fd5b6110c581610e6f565b81146110d057600080fd5b50565b6000813590506110e2816110bc565b92915050565b6000602082840312156110fe576110fd6110b2565b5b600061110c848285016110d3565b91505092915050565b6000819050919050565b61112881611115565b82525050565b6000602082019050611143600083018461111f565b92915050565b600080fd5b600080fd5b7f4e487b7100000000000000000000000000000000000000000000000000000000600052604160045260246000fd5b61118b82610edf565b810181811067ffffffffffffffff821117156111aa576111a9611153565b5b80604052505050565b60006111bd6110a8565b90506111c98282611182565b919050565b600067ffffffffffffffff8211156111e9576111e8611153565b5b6111f282610edf565b9050602081019050919050565b82818337600083830152505050565b600061122161121c846111ce565b6111b3565b90508281526020810184848401111561123d5761123c61114e565b5b6112488482856111ff565b509392505050565b600082601f83011261126557611264611149565b5b813561127584826020860161120e565b91505092915050565b60008060408385031215611295576112946110b2565b5b60006112a3858286016110d3565b925050602083013567ffffffffffffffff8111156112c4576112c36110b7565b5b6112d085828601611250565b9150509250929050565b600082825260208201905092915050565b7f4f6e6c7920616e20456d706c6f7965722063616e206d616b652074686973207260008201527f6571756573740000000000000000000000000000000000000000000000000000602082015250565b60006113476026836112da565b9150611352826112eb565b604082019050919050565b600060208201905081810360008301526113768161133a565b9050919050565b600060ff82169050919050565b7f4e487b7100000000000000000000000000000000000000000000000000000000600052601160045260246000fd5b60006113c48261137d565b91506113cf8361137d565b92508260ff038211156113e5576113e461138a565b5b828201905092915050565b7f4e487b7100000000000000000000000000000000000000000000000000000000600052602260045260246000fd5b6000600282049050600182168061143757607f821691505b6020821081141561144b5761144a6113f0565b5b50919050565b7f4e487b7100000000000000000000000000000000000000000000000000000000600052603260045260246000fd5b600061148b8261137d565b915060ff82141561149f5761149e61138a565b5b600182019050919050565b7f596f752061726520616c7265616479207265676973746572656420617320616e60008201527f20456d706c6f7965720000000000000000000000000000000000000000000000602082015250565b60006115066029836112da565b9150611511826114aa565b604082019050919050565b60006020820190508181036000830152611535816114f9565b9050919050565b7f4f6e6c7920616e20656d706c6f7965722063616e206d616b652074686973207260008201527f6571756573740000000000000000000000000000000000000000000000000000602082015250565b60006115986026836112da565b91506115a38261153c565b604082019050919050565b600060208201905081810360008301526115c78161158b565b9050919050565b7f456d706c6f79656520697320616c72656164792072656769737465726564207460008201527f6f20616e206f7267616e697a6174696f6e000000000000000000000000000000602082015250565b600061162a6031836112da565b9150611635826115ce565b604082019050919050565b600060208201905081810360008301526116598161161d565b905091905056fea2646970667358221220acb74815a0c48ffc6523d7e6ee113ec1473b0e80d13e3aa6df3d7b46270f33ef64736f6c634300080a0033",
  "immutableReferences": {},
  "source": "// SPDX-License-Identifier: MIT OR Apache-2.0\r\npragma solidity ^0.8.0;\r\n\r\ninterface IERC20 {\r\n    function transfer(address recipient, uint256 amount)\r\n        external\r\n        returns (bool);\r\n}\r\n\r\ncontract User {\r\n    // Employee address => employerAddress\r\n    // Used when creating a new employee\r\n    mapping(address => address) private employee_Employer;\r\n\r\n    // Employee address => Employee Struct\r\n    // Used when creating a new Employee\r\n    mapping(address => Employee) private employee_AccountDetails;\r\n\r\n    // Organization employerAddress => Organization\r\n    // Used when creating an Organization\r\n    mapping(address => Organization) private employer_Organization;\r\n\r\n    // Employer address => employeeId => employeeAddress\r\n    // Used when creating a new Employer\r\n    // mapping(address => mapping(uint8 => address)) private member_Organization;\r\n    mapping(address => mapping(uint8 => Employee)) private member_Organization;\r\n\r\n    // Employer address => bool\r\n    mapping(address => bool) private isEmployer;\r\n\r\n    // Employee address => bool\r\n    mapping(address => bool) private isEmployee;\r\n\r\n    // TODO Course struct to be created to hold course details\r\n    // TODO Add course, delete course functions\r\n    // TODO Check for change in course status, emit an event on course completion that initiates streaming from employer to employee\r\n    // TODO Function to get all the learning courses added by employer\r\n    // TODO Employee address => List of courses enrolled and completed\r\n\r\n    enum Access {\r\n        Locked, // Locked by employer. Can't be unlocked by employee. No access to widrawal of funds.\r\n        Unlocked // Unlocked by employer. Can't be unlocked by employee. No access to widrawal of funds.\r\n    }\r\n\r\n    struct Employee {\r\n        address _address; // the address of the employee\r\n        string username; // an identifier for the employee\r\n        Access access; // locked(0) or unlocked(1)\r\n    }\r\n\r\n    struct Organization {\r\n        address payable owner; // the owner of the Organization\r\n        // mapping(address => Employee) employee; // the employees of the organization\r\n        uint8 numOfEmployees; // The number of employees in the organization\r\n    }\r\n\r\n    /** \r\n     * @notice - This function is used to determine the type of user\r\n     * 1 = employer. 2 = employee. 3 = unenrolled\r\n     * @param user - The address of the user.\r\n     */\r\n    function getUserType(address user) external view returns(uint256){\r\n        if(isEmployer[user]){\r\n            return 1;\r\n        }else if (isEmployee[user]){\r\n            return 2;\r\n        }else{\r\n            return 3;\r\n        }\r\n    }\r\n\r\n    /**\r\n     * @notice - This function is used to determine if the user is an employee of an organization.\r\n     */\r\n    function fetchEmployees() public view returns (Employee[] memory) {\r\n        require(isEmployer[msg.sender], \"Only an Employer can make this request\");\r\n\r\n        //determine how many employees the employer has\r\n        uint8 numOfEmployees = employer_Organization[msg.sender].numOfEmployees;\r\n        Employee[] memory employees = new Employee[](numOfEmployees);\r\n        for (uint8 index = 0; index < numOfEmployees; index++) {\r\n            employees[index] = member_Organization[msg.sender][index + 1];\r\n        }\r\n        return employees;\r\n    }\r\n\r\n    /**\r\n     * @notice - This function is used to create a new employer/owner\r\n     */\r\n    function createEmployer() public {\r\n        require(\r\n            !isEmployer[msg.sender],\r\n            \"You are already registered as an Employer\"\r\n        );\r\n\r\n        // create a new organization\r\n        Organization memory organization = Organization({\r\n            owner: payable(msg.sender),\r\n            numOfEmployees: 0\r\n        });\r\n        employer_Organization[msg.sender] = organization;\r\n        isEmployer[msg.sender] = true;\r\n    }\r\n\r\n    /**\r\n     * @notice - This function is used to add a employee to the organization owned by an employer.\r\n     * @param _employeeAddress - The address of the employee.\r\n     * @param _employeeName - The username of the employee.\r\n     */\r\n    function addEmployee(address _employeeAddress, string memory _employeeName) public {\r\n        require(isEmployer[msg.sender], \"Only an employer can make this request\");\r\n        require(!isEmployee[_employeeAddress], \"Employee is already registered to an organization\");\r\n        // Fetch the employee\r\n        Employee memory employee = Employee({\r\n            _address: _employeeAddress,\r\n            username: _employeeName,\r\n            access: Access.Locked\r\n        });\r\n\r\n        // get next id number for the employee\r\n        uint8 employeeId = employer_Organization[msg.sender].numOfEmployees + 1;\r\n\r\n        // update employee count\r\n        employer_Organization[msg.sender].numOfEmployees = employeeId;\r\n\r\n        // update mappings\r\n        isEmployee[_employeeAddress] = true;\r\n        employee_Employer[_employeeAddress] = msg.sender;\r\n        employee_AccountDetails[_employeeAddress] = employee;\r\n        member_Organization[msg.sender][employeeId] = employee;\r\n    }\r\n\r\n    /**\r\n     * @notice - This function is used to change the access of an employee.\r\n     * @param _employeeAddress - The address of the employee.\r\n     */\r\n    function changeAccess(address _employeeAddress) public {\r\n        require(isEmployer[msg.sender], \"Only an employer can make this request\");\r\n\r\n        // current status\r\n        Access currentAccess = employee_AccountDetails[_employeeAddress].access;\r\n\r\n        // change the access of the employee\r\n        if (currentAccess == Access.Locked) {\r\n            employee_AccountDetails[_employeeAddress].access = Access.Unlocked;\r\n        } else {\r\n            employee_AccountDetails[_employeeAddress].access = Access.Locked;\r\n        }\r\n    }\r\n}\r\n",
  "sourcePath": "/mnt/c/blockchainrepo/upload/kalvi-core/contracts/User.sol",
  "compiler": {
    "name": "solc",
    "version": "0.8.10+commit.fc410830.Emscripten.clang"
  },
  "schemaVersion": "3.4.4",
  "updatedAt": "2022-03-18T10:30:34.318Z",
  "networkType": "ethereum",
  "devdoc": {
    "kind": "dev",
    "methods": {
      "addEmployee(address,string)": {
        "params": {
          "_employeeAddress": "- The address of the employee.",
          "_employeeName": "- The username of the employee."
        }
      },
      "changeAccess(address)": {
        "params": {
          "_employeeAddress": "- The address of the employee."
        }
      },
      "getUserType(address)": {
        "params": {
          "user": "- The address of the user."
        }
      }
    },
    "version": 1
  },
  "userdoc": {
    "kind": "user",
    "methods": {
      "addEmployee(address,string)": {
        "notice": "- This function is used to add a employee to the organization owned by an employer."
      },
      "changeAccess(address)": {
        "notice": "- This function is used to change the access of an employee."
      },
      "createEmployer()": {
        "notice": "- This function is used to create a new employer/owner"
      },
      "fetchEmployees()": {
        "notice": "- This function is used to determine if the user is an employee of an organization."
      },
      "getUserType(address)": {
        "notice": "- This function is used to determine the type of user 1 = employer. 2 = employee. 3 = unenrolled"
      }
    },
    "version": 1
  }
}